{
  "_format": "hh-sol-artifact-1",
  "contractName": "LitheumPrivateBCOERC20",
  "sourceName": "contracts/LitheumPrivateBCOERC20.sol",
  "abi": [
    {
      "inputs": [
        {
          "internalType": "string",
          "name": "name_",
          "type": "string"
        },
        {
          "internalType": "string",
          "name": "symbol_",
          "type": "string"
        },
        {
          "internalType": "address",
          "name": "owner_",
          "type": "address"
        },
        {
          "internalType": "address",
          "name": "usdtToken_",
          "type": "address"
        },
        {
          "internalType": "uint256",
          "name": "staticPrice_",
          "type": "uint256"
        },
        {
          "internalType": "uint256",
          "name": "initSupply_",
          "type": "uint256"
        }
      ],
      "stateMutability": "nonpayable",
      "type": "constructor"
    },
    {
      "inputs": [
        {
          "internalType": "address",
          "name": "spender",
          "type": "address"
        },
        {
          "internalType": "uint256",
          "name": "allowance",
          "type": "uint256"
        },
        {
          "internalType": "uint256",
          "name": "needed",
          "type": "uint256"
        }
      ],
      "name": "ERC20InsufficientAllowance",
      "type": "error"
    },
    {
      "inputs": [
        {
          "internalType": "address",
          "name": "sender",
          "type": "address"
        },
        {
          "internalType": "uint256",
          "name": "balance",
          "type": "uint256"
        },
        {
          "internalType": "uint256",
          "name": "needed",
          "type": "uint256"
        }
      ],
      "name": "ERC20InsufficientBalance",
      "type": "error"
    },
    {
      "inputs": [
        {
          "internalType": "address",
          "name": "approver",
          "type": "address"
        }
      ],
      "name": "ERC20InvalidApprover",
      "type": "error"
    },
    {
      "inputs": [
        {
          "internalType": "address",
          "name": "receiver",
          "type": "address"
        }
      ],
      "name": "ERC20InvalidReceiver",
      "type": "error"
    },
    {
      "inputs": [
        {
          "internalType": "address",
          "name": "sender",
          "type": "address"
        }
      ],
      "name": "ERC20InvalidSender",
      "type": "error"
    },
    {
      "inputs": [
        {
          "internalType": "address",
          "name": "spender",
          "type": "address"
        }
      ],
      "name": "ERC20InvalidSpender",
      "type": "error"
    },
    {
      "anonymous": false,
      "inputs": [
        {
          "indexed": true,
          "internalType": "address",
          "name": "owner",
          "type": "address"
        },
        {
          "indexed": true,
          "internalType": "address",
          "name": "spender",
          "type": "address"
        },
        {
          "indexed": false,
          "internalType": "uint256",
          "name": "value",
          "type": "uint256"
        }
      ],
      "name": "Approval",
      "type": "event"
    },
    {
      "anonymous": false,
      "inputs": [
        {
          "indexed": true,
          "internalType": "address",
          "name": "from",
          "type": "address"
        },
        {
          "indexed": true,
          "internalType": "address",
          "name": "to",
          "type": "address"
        },
        {
          "indexed": false,
          "internalType": "uint256",
          "name": "value",
          "type": "uint256"
        }
      ],
      "name": "Transfer",
      "type": "event"
    },
    {
      "inputs": [],
      "name": "LitheumERC20TokenAddress",
      "outputs": [
        {
          "internalType": "address",
          "name": "",
          "type": "address"
        }
      ],
      "stateMutability": "view",
      "type": "function"
    },
    {
      "inputs": [
        {
          "internalType": "address",
          "name": "_address",
          "type": "address"
        },
        {
          "internalType": "uint256",
          "name": "limit",
          "type": "uint256"
        }
      ],
      "name": "addToWhitelist",
      "outputs": [],
      "stateMutability": "nonpayable",
      "type": "function"
    },
    {
      "inputs": [
        {
          "internalType": "address",
          "name": "owner",
          "type": "address"
        },
        {
          "internalType": "address",
          "name": "spender",
          "type": "address"
        }
      ],
      "name": "allowance",
      "outputs": [
        {
          "internalType": "uint256",
          "name": "",
          "type": "uint256"
        }
      ],
      "stateMutability": "view",
      "type": "function"
    },
    {
      "inputs": [
        {
          "internalType": "address",
          "name": "spender",
          "type": "address"
        },
        {
          "internalType": "uint256",
          "name": "value",
          "type": "uint256"
        }
      ],
      "name": "approve",
      "outputs": [
        {
          "internalType": "bool",
          "name": "",
          "type": "bool"
        }
      ],
      "stateMutability": "nonpayable",
      "type": "function"
    },
    {
      "inputs": [
        {
          "internalType": "address",
          "name": "account",
          "type": "address"
        }
      ],
      "name": "balanceOf",
      "outputs": [
        {
          "internalType": "uint256",
          "name": "",
          "type": "uint256"
        }
      ],
      "stateMutability": "view",
      "type": "function"
    },
    {
      "inputs": [
        {
          "internalType": "uint256",
          "name": "amount",
          "type": "uint256"
        }
      ],
      "name": "burn",
      "outputs": [],
      "stateMutability": "nonpayable",
      "type": "function"
    },
    {
      "inputs": [],
      "name": "decimals",
      "outputs": [
        {
          "internalType": "uint8",
          "name": "",
          "type": "uint8"
        }
      ],
      "stateMutability": "view",
      "type": "function"
    },
    {
      "inputs": [
        {
          "internalType": "uint256",
          "name": "usdtAmount",
          "type": "uint256"
        }
      ],
      "name": "getEstimatedSwapAmount",
      "outputs": [
        {
          "internalType": "uint256",
          "name": "",
          "type": "uint256"
        }
      ],
      "stateMutability": "view",
      "type": "function"
    },
    {
      "inputs": [],
      "name": "getPLTHBalance",
      "outputs": [
        {
          "internalType": "uint256",
          "name": "",
          "type": "uint256"
        }
      ],
      "stateMutability": "view",
      "type": "function"
    },
    {
      "inputs": [],
      "name": "getStaticPrice",
      "outputs": [
        {
          "internalType": "uint256",
          "name": "",
          "type": "uint256"
        }
      ],
      "stateMutability": "view",
      "type": "function"
    },
    {
      "inputs": [],
      "name": "getUSDTBalance",
      "outputs": [
        {
          "internalType": "uint256",
          "name": "",
          "type": "uint256"
        }
      ],
      "stateMutability": "view",
      "type": "function"
    },
    {
      "inputs": [],
      "name": "getWhitelist",
      "outputs": [
        {
          "internalType": "address[]",
          "name": "",
          "type": "address[]"
        }
      ],
      "stateMutability": "view",
      "type": "function"
    },
    {
      "inputs": [
        {
          "internalType": "address",
          "name": "_address",
          "type": "address"
        }
      ],
      "name": "isAddressInWhitelist",
      "outputs": [
        {
          "internalType": "bool",
          "name": "",
          "type": "bool"
        }
      ],
      "stateMutability": "view",
      "type": "function"
    },
    {
      "inputs": [],
      "name": "isConvertible",
      "outputs": [
        {
          "internalType": "bool",
          "name": "",
          "type": "bool"
        }
      ],
      "stateMutability": "view",
      "type": "function"
    },
    {
      "inputs": [],
      "name": "isOwner",
      "outputs": [
        {
          "internalType": "bool",
          "name": "",
          "type": "bool"
        }
      ],
      "stateMutability": "view",
      "type": "function"
    },
    {
      "inputs": [],
      "name": "launchSAFT",
      "outputs": [],
      "stateMutability": "nonpayable",
      "type": "function"
    },
    {
      "inputs": [],
      "name": "name",
      "outputs": [
        {
          "internalType": "string",
          "name": "",
          "type": "string"
        }
      ],
      "stateMutability": "view",
      "type": "function"
    },
    {
      "inputs": [
        {
          "internalType": "address",
          "name": "_address",
          "type": "address"
        }
      ],
      "name": "removeFromWhitelist",
      "outputs": [],
      "stateMutability": "nonpayable",
      "type": "function"
    },
    {
      "inputs": [
        {
          "internalType": "address",
          "name": "LitheumERC20TokenAddress_",
          "type": "address"
        }
      ],
      "name": "setLitheumERC20TokenAddress",
      "outputs": [],
      "stateMutability": "nonpayable",
      "type": "function"
    },
    {
      "inputs": [
        {
          "internalType": "uint256",
          "name": "staticPrice_",
          "type": "uint256"
        }
      ],
      "name": "setStaticPrice",
      "outputs": [],
      "stateMutability": "nonpayable",
      "type": "function"
    },
    {
      "inputs": [],
      "name": "staticPrice",
      "outputs": [
        {
          "internalType": "uint256",
          "name": "",
          "type": "uint256"
        }
      ],
      "stateMutability": "view",
      "type": "function"
    },
    {
      "inputs": [
        {
          "internalType": "uint256",
          "name": "usdtAmount",
          "type": "uint256"
        }
      ],
      "name": "staticSwap",
      "outputs": [],
      "stateMutability": "nonpayable",
      "type": "function"
    },
    {
      "inputs": [],
      "name": "symbol",
      "outputs": [
        {
          "internalType": "string",
          "name": "",
          "type": "string"
        }
      ],
      "stateMutability": "view",
      "type": "function"
    },
    {
      "inputs": [],
      "name": "totalSupply",
      "outputs": [
        {
          "internalType": "uint256",
          "name": "",
          "type": "uint256"
        }
      ],
      "stateMutability": "view",
      "type": "function"
    },
    {
      "inputs": [
        {
          "internalType": "address",
          "name": "recipient",
          "type": "address"
        },
        {
          "internalType": "uint256",
          "name": "amount",
          "type": "uint256"
        }
      ],
      "name": "transfer",
      "outputs": [
        {
          "internalType": "bool",
          "name": "",
          "type": "bool"
        }
      ],
      "stateMutability": "nonpayable",
      "type": "function"
    },
    {
      "inputs": [
        {
          "internalType": "address",
          "name": "sender_",
          "type": "address"
        },
        {
          "internalType": "address",
          "name": "recipient_",
          "type": "address"
        },
        {
          "internalType": "uint256",
          "name": "amount_",
          "type": "uint256"
        }
      ],
      "name": "transferFrom",
      "outputs": [
        {
          "internalType": "bool",
          "name": "",
          "type": "bool"
        }
      ],
      "stateMutability": "nonpayable",
      "type": "function"
    },
    {
      "inputs": [],
      "name": "usdtContract",
      "outputs": [
        {
          "internalType": "contract IERC20",
          "name": "",
          "type": "address"
        }
      ],
      "stateMutability": "view",
      "type": "function"
    },
    {
      "inputs": [
        {
          "internalType": "uint256",
          "name": "usdtAmount",
          "type": "uint256"
        }
      ],
      "name": "withdraw",
      "outputs": [],
      "stateMutability": "nonpayable",
      "type": "function"
    }
  ],
  "bytecode": "0x6080604052662386f26fc100006008556000600b60006101000a81548160ff0219169083151502179055503480156200003757600080fd5b50604051620039373803806200393783398181016040528101906200005d91906200068e565b85858160039081620000709190620009a9565b508060049081620000829190620009a9565b505050600073ffffffffffffffffffffffffffffffffffffffff168473ffffffffffffffffffffffffffffffffffffffff1603620000f7576040517f08c379a0000000000000000000000000000000000000000000000000000000008152600401620000ee9062000b3d565b60405180910390fd5b83600560006101000a81548173ffffffffffffffffffffffffffffffffffffffff021916908373ffffffffffffffffffffffffffffffffffffffff1602179055508160088190555082600760006101000a81548173ffffffffffffffffffffffffffffffffffffffff021916908373ffffffffffffffffffffffffffffffffffffffff1602179055506200019230826200019e60201b60201c565b50505050505062000c62565b600073ffffffffffffffffffffffffffffffffffffffff168273ffffffffffffffffffffffffffffffffffffffff1603620002135760006040517fec442f050000000000000000000000000000000000000000000000000000000081526004016200020a919062000b70565b60405180910390fd5b62000227600083836200022b60201b60201c565b5050565b600073ffffffffffffffffffffffffffffffffffffffff168373ffffffffffffffffffffffffffffffffffffffff16036200028157806002600082825462000274919062000bbc565b9250508190555062000357565b60008060008573ffffffffffffffffffffffffffffffffffffffff1673ffffffffffffffffffffffffffffffffffffffff1681526020019081526020016000205490508181101562000310578381836040517fe450d38c000000000000000000000000000000000000000000000000000000008152600401620003079392919062000c08565b60405180910390fd5b8181036000808673ffffffffffffffffffffffffffffffffffffffff1673ffffffffffffffffffffffffffffffffffffffff16815260200190815260200160002081905550505b600073ffffffffffffffffffffffffffffffffffffffff168273ffffffffffffffffffffffffffffffffffffffff1603620003a25780600260008282540392505081905550620003ef565b806000808473ffffffffffffffffffffffffffffffffffffffff1673ffffffffffffffffffffffffffffffffffffffff168152602001908152602001600020600082825401925050819055505b8173ffffffffffffffffffffffffffffffffffffffff168373ffffffffffffffffffffffffffffffffffffffff167fddf252ad1be2c89b69c2b068fc378daa952ba7f163c4a11628f55a4df523b3ef836040516200044e919062000c45565b60405180910390a3505050565b6000604051905090565b600080fd5b600080fd5b600080fd5b600080fd5b6000601f19601f8301169050919050565b7f4e487b7100000000000000000000000000000000000000000000000000000000600052604160045260246000fd5b620004c48262000479565b810181811067ffffffffffffffff82111715620004e657620004e56200048a565b5b80604052505050565b6000620004fb6200045b565b9050620005098282620004b9565b919050565b600067ffffffffffffffff8211156200052c576200052b6200048a565b5b620005378262000479565b9050602081019050919050565b60005b838110156200056457808201518184015260208101905062000547565b60008484015250505050565b60006200058762000581846200050e565b620004ef565b905082815260208101848484011115620005a657620005a562000474565b5b620005b384828562000544565b509392505050565b600082601f830112620005d357620005d26200046f565b5b8151620005e584826020860162000570565b91505092915050565b600073ffffffffffffffffffffffffffffffffffffffff82169050919050565b60006200061b82620005ee565b9050919050565b6200062d816200060e565b81146200063957600080fd5b50565b6000815190506200064d8162000622565b92915050565b6000819050919050565b620006688162000653565b81146200067457600080fd5b50565b60008151905062000688816200065d565b92915050565b60008060008060008060c08789031215620006ae57620006ad62000465565b5b600087015167ffffffffffffffff811115620006cf57620006ce6200046a565b5b620006dd89828a01620005bb565b965050602087015167ffffffffffffffff8111156200070157620007006200046a565b5b6200070f89828a01620005bb565b95505060406200072289828a016200063c565b94505060606200073589828a016200063c565b93505060806200074889828a0162000677565b92505060a06200075b89828a0162000677565b9150509295509295509295565b600081519050919050565b7f4e487b7100000000000000000000000000000000000000000000000000000000600052602260045260246000fd5b60006002820490506001821680620007bb57607f821691505b602082108103620007d157620007d062000773565b5b50919050565b60008190508160005260206000209050919050565b60006020601f8301049050919050565b600082821b905092915050565b6000600883026200083b7fffffffffffffffffffffffffffffffffffffffffffffffffffffffffffffffff82620007fc565b620008478683620007fc565b95508019841693508086168417925050509392505050565b6000819050919050565b60006200088a620008846200087e8462000653565b6200085f565b62000653565b9050919050565b6000819050919050565b620008a68362000869565b620008be620008b58262000891565b84845462000809565b825550505050565b600090565b620008d5620008c6565b620008e28184846200089b565b505050565b5b818110156200090a57620008fe600082620008cb565b600181019050620008e8565b5050565b601f82111562000959576200092381620007d7565b6200092e84620007ec565b810160208510156200093e578190505b620009566200094d85620007ec565b830182620008e7565b50505b505050565b600082821c905092915050565b60006200097e600019846008026200095e565b1980831691505092915050565b60006200099983836200096b565b9150826002028217905092915050565b620009b48262000768565b67ffffffffffffffff811115620009d057620009cf6200048a565b5b620009dc8254620007a2565b620009e98282856200090e565b600060209050601f83116001811462000a21576000841562000a0c578287015190505b62000a1885826200098b565b86555062000a88565b601f19841662000a3186620007d7565b60005b8281101562000a5b5784890151825560018201915060208501945060208101905062000a34565b8683101562000a7b578489015162000a77601f8916826200096b565b8355505b6001600288020188555050505b505050505050565b600082825260208201905092915050565b7f6f776e657220616464726573732063616e6e6f742062652073657420746f207a60008201527f65726f2c2065637265636f7665722072657475726e73207a65726f206f6e206560208201527f72726f7200000000000000000000000000000000000000000000000000000000604082015250565b600062000b2560448362000a90565b915062000b328262000aa1565b606082019050919050565b6000602082019050818103600083015262000b588162000b16565b9050919050565b62000b6a816200060e565b82525050565b600060208201905062000b87600083018462000b5f565b92915050565b7f4e487b7100000000000000000000000000000000000000000000000000000000600052601160045260246000fd5b600062000bc98262000653565b915062000bd68362000653565b925082820190508082111562000bf15762000bf062000b8d565b5b92915050565b62000c028162000653565b82525050565b600060608201905062000c1f600083018662000b5f565b62000c2e602083018562000bf7565b62000c3d604083018462000bf7565b949350505050565b600060208201905062000c5c600083018462000bf7565b92915050565b612cc58062000c726000396000f3fe608060405234801561001057600080fd5b50600436106101c45760003560e01c80638ab1d681116100f9578063b85c526211610097578063d01f63f511610071578063d01f63f5146104e7578063d0aff6eb14610505578063dc3d7be914610521578063dd62ed3e1461053d576101c4565b8063b85c5262146104a1578063ca343648146104bf578063ceca7120146104dd576101c4565b80639785fac8116100d35780639785fac8146104055780639a31329914610423578063a9059cbb14610453578063aa3fd63914610483576101c4565b80638ab1d681146103ad5780638f32d59b146103c957806395d89b41146103e7576101c4565b8063313ce567116101665780634e471440116101405780634e471440146103255780635736e06514610343578063611509231461035f57806370a082311461037d576101c4565b8063313ce567146102cd57806342966c68146102eb57806342c1775b14610307576101c4565b806318160ddd116101a257806318160ddd14610247578063214405fc1461026557806323b872dd146102815780632e1a7d4d146102b1576101c4565b806306fdde03146101c9578063095ea7b3146101e75780630db2b8a714610217575b600080fd5b6101d161056d565b6040516101de9190611f4f565b60405180910390f35b61020160048036038101906101fc919061200a565b6105ff565b60405161020e9190612065565b60405180910390f35b610231600480360381019061022c9190612080565b610622565b60405161023e91906120bc565b60405180910390f35b61024f61064c565b60405161025c91906120bc565b60405180910390f35b61027f600480360381019061027a919061200a565b610656565b005b61029b600480360381019061029691906120d7565b610849565b6040516102a89190612065565b60405180910390f35b6102cb60048036038101906102c69190612080565b610886565b005b6102d5610b41565b6040516102e29190612146565b60405180910390f35b61030560048036038101906103009190612080565b610b4a565b005b61030f610cd8565b60405161031c9190612065565b60405180910390f35b61032d610ceb565b60405161033a9190612170565b60405180910390f35b61035d60048036038101906103589190612080565b610d11565b005b610367610dab565b60405161037491906121ea565b60405180910390f35b61039760048036038101906103929190612205565b610dd1565b6040516103a491906120bc565b60405180910390f35b6103c760048036038101906103c29190612205565b610e19565b005b6103d16110c0565b6040516103de9190612065565b60405180910390f35b6103ef611118565b6040516103fc9190611f4f565b60405180910390f35b61040d6111aa565b60405161041a91906120bc565b60405180910390f35b61043d60048036038101906104389190612205565b61124d565b60405161044a9190612065565b60405180910390f35b61046d6004803603810190610468919061200a565b6112f5565b60405161047a9190612065565b60405180910390f35b61048b611332565b60405161049891906120bc565b60405180910390f35b6104a961133c565b6040516104b691906120bc565b60405180910390f35b6104c761134c565b6040516104d491906120bc565b60405180910390f35b6104e5611352565b005b6104ef611434565b6040516104fc91906122f0565b60405180910390f35b61051f600480360381019061051a9190612080565b6114c2565b005b61053b60048036038101906105369190612205565b6117c0565b005b61055760048036038101906105529190612312565b611894565b60405161056491906120bc565b60405180910390f35b60606003805461057c90612381565b80601f01602080910402602001604051908101604052809291908181526020018280546105a890612381565b80156105f55780601f106105ca576101008083540402835291602001916105f5565b820191906000526020600020905b8154815290600101906020018083116105d857829003601f168201915b5050505050905090565b60008061060a61191b565b9050610617818585611923565b600191505092915050565b6000600854670de0b6b3a76400008361063b91906123e1565b6106459190612452565b9050919050565b6000600254905090565b600560009054906101000a900473ffffffffffffffffffffffffffffffffffffffff1673ffffffffffffffffffffffffffffffffffffffff163373ffffffffffffffffffffffffffffffffffffffff16146106e6576040517f08c379a00000000000000000000000000000000000000000000000000000000081526004016106dd906124cf565b60405180910390fd5b600073ffffffffffffffffffffffffffffffffffffffff168273ffffffffffffffffffffffffffffffffffffffff1603610755576040517f08c379a000000000000000000000000000000000000000000000000000000000815260040161074c9061253b565b60405180910390fd5b61075e8261124d565b1561079e576040517f08c379a0000000000000000000000000000000000000000000000000000000008152600401610795906125a7565b60405180910390fd5b80600960008473ffffffffffffffffffffffffffffffffffffffff1673ffffffffffffffffffffffffffffffffffffffff16815260200190815260200160002081905550600a829080600181540180825580915050600190039060005260206000200160009091909190916101000a81548173ffffffffffffffffffffffffffffffffffffffff021916908373ffffffffffffffffffffffffffffffffffffffff1602179055505050565b60006040517f08c379a000000000000000000000000000000000000000000000000000000000815260040161087d90612613565b60405180910390fd5b600560009054906101000a900473ffffffffffffffffffffffffffffffffffffffff1673ffffffffffffffffffffffffffffffffffffffff163373ffffffffffffffffffffffffffffffffffffffff1614610916576040517f08c379a000000000000000000000000000000000000000000000000000000000815260040161090d906124cf565b60405180910390fd5b60008111610959576040517f08c379a00000000000000000000000000000000000000000000000000000000081526004016109509061267f565b60405180910390fd5b6000600760009054906101000a900473ffffffffffffffffffffffffffffffffffffffff1673ffffffffffffffffffffffffffffffffffffffff166370a08231306040518263ffffffff1660e01b81526004016109b69190612170565b602060405180830381865afa1580156109d3573d6000803e3d6000fd5b505050506040513d601f19601f820116820180604052508101906109f791906126b4565b905080821115610a3c576040517f08c379a0000000000000000000000000000000000000000000000000000000008152600401610a3390612753565b60405180910390fd5b600760009054906101000a900473ffffffffffffffffffffffffffffffffffffffff1673ffffffffffffffffffffffffffffffffffffffff1663a9059cbb600560009054906101000a900473ffffffffffffffffffffffffffffffffffffffff16846040518363ffffffff1660e01b8152600401610abb929190612773565b6020604051808303816000875af1158015610ada573d6000803e3d6000fd5b505050506040513d601f19601f82011682018060405250810190610afe91906127c8565b610b3d576040517f08c379a0000000000000000000000000000000000000000000000000000000008152600401610b3490612841565b60405180910390fd5b5050565b60006012905090565b600073ffffffffffffffffffffffffffffffffffffffff16600660009054906101000a900473ffffffffffffffffffffffffffffffffffffffff1673ffffffffffffffffffffffffffffffffffffffff1603610bdb576040517f08c379a0000000000000000000000000000000000000000000000000000000008152600401610bd2906128d3565b60405180910390fd5b600b60009054906101000a900460ff16610c2a576040517f08c379a0000000000000000000000000000000000000000000000000000000008152600401610c2190612965565b60405180910390fd5b610c343382611935565b600660009054906101000a900473ffffffffffffffffffffffffffffffffffffffff1673ffffffffffffffffffffffffffffffffffffffff1663a9059cbb33836040518363ffffffff1660e01b8152600401610c91929190612773565b6020604051808303816000875af1158015610cb0573d6000803e3d6000fd5b505050506040513d601f19601f82011682018060405250810190610cd491906127c8565b5050565b600b60009054906101000a900460ff1681565b600660009054906101000a900473ffffffffffffffffffffffffffffffffffffffff1681565b600560009054906101000a900473ffffffffffffffffffffffffffffffffffffffff1673ffffffffffffffffffffffffffffffffffffffff163373ffffffffffffffffffffffffffffffffffffffff1614610da1576040517f08c379a0000000000000000000000000000000000000000000000000000000008152600401610d98906124cf565b60405180910390fd5b8060088190555050565b600760009054906101000a900473ffffffffffffffffffffffffffffffffffffffff1681565b60008060008373ffffffffffffffffffffffffffffffffffffffff1673ffffffffffffffffffffffffffffffffffffffff168152602001908152602001600020549050919050565b600560009054906101000a900473ffffffffffffffffffffffffffffffffffffffff1673ffffffffffffffffffffffffffffffffffffffff163373ffffffffffffffffffffffffffffffffffffffff1614610ea9576040517f08c379a0000000000000000000000000000000000000000000000000000000008152600401610ea0906124cf565b60405180910390fd5b610eb28161124d565b610ef1576040517f08c379a0000000000000000000000000000000000000000000000000000000008152600401610ee8906129d1565b60405180910390fd5b6000600960008373ffffffffffffffffffffffffffffffffffffffff1673ffffffffffffffffffffffffffffffffffffffff1681526020019081526020016000208190555060005b600a805490508110156110bc578173ffffffffffffffffffffffffffffffffffffffff16600a8281548110610f7157610f706129f1565b5b9060005260206000200160009054906101000a900473ffffffffffffffffffffffffffffffffffffffff1673ffffffffffffffffffffffffffffffffffffffff16036110af57600a6001600a80549050610fcb9190612a20565b81548110610fdc57610fdb6129f1565b5b9060005260206000200160009054906101000a900473ffffffffffffffffffffffffffffffffffffffff16600a828154811061101b5761101a6129f1565b5b9060005260206000200160006101000a81548173ffffffffffffffffffffffffffffffffffffffff021916908373ffffffffffffffffffffffffffffffffffffffff160217905550600a80548061107557611074612a54565b5b6001900381819060005260206000200160006101000a81549073ffffffffffffffffffffffffffffffffffffffff021916905590556110bc565b8080600101915050610f39565b5050565b6000600560009054906101000a900473ffffffffffffffffffffffffffffffffffffffff1673ffffffffffffffffffffffffffffffffffffffff163373ffffffffffffffffffffffffffffffffffffffff1614905090565b60606004805461112790612381565b80601f016020809104026020016040519081016040528092919081815260200182805461115390612381565b80156111a05780601f10611175576101008083540402835291602001916111a0565b820191906000526020600020905b81548152906001019060200180831161118357829003601f168201915b5050505050905090565b6000600760009054906101000a900473ffffffffffffffffffffffffffffffffffffffff1673ffffffffffffffffffffffffffffffffffffffff166370a08231306040518263ffffffff1660e01b81526004016112079190612170565b602060405180830381865afa158015611224573d6000803e3d6000fd5b505050506040513d601f19601f8201168201806040525081019061124891906126b4565b905090565b600080600090505b600a805490508110156112ea578273ffffffffffffffffffffffffffffffffffffffff16600a828154811061128d5761128c6129f1565b5b9060005260206000200160009054906101000a900473ffffffffffffffffffffffffffffffffffffffff1673ffffffffffffffffffffffffffffffffffffffff16036112dd5760019150506112f0565b8080600101915050611255565b50600090505b919050565b60006040517f08c379a000000000000000000000000000000000000000000000000000000000815260040161132990612613565b60405180910390fd5b6000600854905090565b600061134730610dd1565b905090565b60085481565b600560009054906101000a900473ffffffffffffffffffffffffffffffffffffffff1673ffffffffffffffffffffffffffffffffffffffff163373ffffffffffffffffffffffffffffffffffffffff16146113e2576040517f08c379a00000000000000000000000000000000000000000000000000000000081526004016113d9906124cf565b60405180910390fd5b6001600b60006101000a81548160ff02191690831515021790555061143230600560009054906101000a900473ffffffffffffffffffffffffffffffffffffffff1661142d30610dd1565b6119b7565b565b6060600a8054806020026020016040519081016040528092919081815260200182805480156114b857602002820191906000526020600020905b8160009054906101000a900473ffffffffffffffffffffffffffffffffffffffff1673ffffffffffffffffffffffffffffffffffffffff168152602001906001019080831161146e575b5050505050905090565b6000600960003373ffffffffffffffffffffffffffffffffffffffff1673ffffffffffffffffffffffffffffffffffffffff1681526020019081526020016000205403611544576040517f08c379a000000000000000000000000000000000000000000000000000000000815260040161153b90612af5565b60405180910390fd5b60008111611587576040517f08c379a000000000000000000000000000000000000000000000000000000000815260040161157e9061267f565b60405180910390fd5b6000600854670de0b6b3a7640000836115a091906123e1565b6115aa9190612452565b9050600960003373ffffffffffffffffffffffffffffffffffffffff1673ffffffffffffffffffffffffffffffffffffffff1681526020019081526020016000205481111561162e576040517f08c379a000000000000000000000000000000000000000000000000000000000815260040161162590612b61565b60405180910390fd5b600760009054906101000a900473ffffffffffffffffffffffffffffffffffffffff1673ffffffffffffffffffffffffffffffffffffffff166323b872dd3330856040518463ffffffff1660e01b815260040161168d93929190612b81565b6020604051808303816000875af11580156116ac573d6000803e3d6000fd5b505050506040513d601f19601f820116820180604052508101906116d091906127c8565b61170f576040517f08c379a000000000000000000000000000000000000000000000000000000000815260040161170690612841565b60405180910390fd5b8061171930610dd1565b101561175a576040517f08c379a000000000000000000000000000000000000000000000000000000000815260040161175190612c04565b60405180910390fd5b611765303383611aab565b5080600960003373ffffffffffffffffffffffffffffffffffffffff1673ffffffffffffffffffffffffffffffffffffffff16815260200190815260200160002060008282546117b59190612a20565b925050819055505050565b600560009054906101000a900473ffffffffffffffffffffffffffffffffffffffff1673ffffffffffffffffffffffffffffffffffffffff163373ffffffffffffffffffffffffffffffffffffffff1614611850576040517f08c379a0000000000000000000000000000000000000000000000000000000008152600401611847906124cf565b60405180910390fd5b80600660006101000a81548173ffffffffffffffffffffffffffffffffffffffff021916908373ffffffffffffffffffffffffffffffffffffffff16021790555050565b6000600160008473ffffffffffffffffffffffffffffffffffffffff1673ffffffffffffffffffffffffffffffffffffffff16815260200190815260200160002060008373ffffffffffffffffffffffffffffffffffffffff1673ffffffffffffffffffffffffffffffffffffffff16815260200190815260200160002054905092915050565b600033905090565b6119308383836001611ac3565b505050565b600073ffffffffffffffffffffffffffffffffffffffff168273ffffffffffffffffffffffffffffffffffffffff16036119a75760006040517f96c6fd1e00000000000000000000000000000000000000000000000000000000815260040161199e9190612170565b60405180910390fd5b6119b382600083611c9a565b5050565b600073ffffffffffffffffffffffffffffffffffffffff168373ffffffffffffffffffffffffffffffffffffffff1603611a295760006040517f96c6fd1e000000000000000000000000000000000000000000000000000000008152600401611a209190612170565b60405180910390fd5b600073ffffffffffffffffffffffffffffffffffffffff168273ffffffffffffffffffffffffffffffffffffffff1603611a9b5760006040517fec442f05000000000000000000000000000000000000000000000000000000008152600401611a929190612170565b60405180910390fd5b611aa6838383611c9a565b505050565b6000611ab88484846119b7565b600190509392505050565b600073ffffffffffffffffffffffffffffffffffffffff168473ffffffffffffffffffffffffffffffffffffffff1603611b355760006040517fe602df05000000000000000000000000000000000000000000000000000000008152600401611b2c9190612170565b60405180910390fd5b600073ffffffffffffffffffffffffffffffffffffffff168373ffffffffffffffffffffffffffffffffffffffff1603611ba75760006040517f94280d62000000000000000000000000000000000000000000000000000000008152600401611b9e9190612170565b60405180910390fd5b81600160008673ffffffffffffffffffffffffffffffffffffffff1673ffffffffffffffffffffffffffffffffffffffff16815260200190815260200160002060008573ffffffffffffffffffffffffffffffffffffffff1673ffffffffffffffffffffffffffffffffffffffff168152602001908152602001600020819055508015611c94578273ffffffffffffffffffffffffffffffffffffffff168473ffffffffffffffffffffffffffffffffffffffff167f8c5be1e5ebec7d5bd14f71427d1e84f3dd0314c0f7b2291e5b200ac8c7c3b92584604051611c8b91906120bc565b60405180910390a35b50505050565b600073ffffffffffffffffffffffffffffffffffffffff168373ffffffffffffffffffffffffffffffffffffffff1603611cec578060026000828254611ce09190612c24565b92505081905550611dbf565b60008060008573ffffffffffffffffffffffffffffffffffffffff1673ffffffffffffffffffffffffffffffffffffffff16815260200190815260200160002054905081811015611d78578381836040517fe450d38c000000000000000000000000000000000000000000000000000000008152600401611d6f93929190612c58565b60405180910390fd5b8181036000808673ffffffffffffffffffffffffffffffffffffffff1673ffffffffffffffffffffffffffffffffffffffff16815260200190815260200160002081905550505b600073ffffffffffffffffffffffffffffffffffffffff168273ffffffffffffffffffffffffffffffffffffffff1603611e085780600260008282540392505081905550611e55565b806000808473ffffffffffffffffffffffffffffffffffffffff1673ffffffffffffffffffffffffffffffffffffffff168152602001908152602001600020600082825401925050819055505b8173ffffffffffffffffffffffffffffffffffffffff168373ffffffffffffffffffffffffffffffffffffffff167fddf252ad1be2c89b69c2b068fc378daa952ba7f163c4a11628f55a4df523b3ef83604051611eb291906120bc565b60405180910390a3505050565b600081519050919050565b600082825260208201905092915050565b60005b83811015611ef9578082015181840152602081019050611ede565b60008484015250505050565b6000601f19601f8301169050919050565b6000611f2182611ebf565b611f2b8185611eca565b9350611f3b818560208601611edb565b611f4481611f05565b840191505092915050565b60006020820190508181036000830152611f698184611f16565b905092915050565b600080fd5b600073ffffffffffffffffffffffffffffffffffffffff82169050919050565b6000611fa182611f76565b9050919050565b611fb181611f96565b8114611fbc57600080fd5b50565b600081359050611fce81611fa8565b92915050565b6000819050919050565b611fe781611fd4565b8114611ff257600080fd5b50565b60008135905061200481611fde565b92915050565b6000806040838503121561202157612020611f71565b5b600061202f85828601611fbf565b925050602061204085828601611ff5565b9150509250929050565b60008115159050919050565b61205f8161204a565b82525050565b600060208201905061207a6000830184612056565b92915050565b60006020828403121561209657612095611f71565b5b60006120a484828501611ff5565b91505092915050565b6120b681611fd4565b82525050565b60006020820190506120d160008301846120ad565b92915050565b6000806000606084860312156120f0576120ef611f71565b5b60006120fe86828701611fbf565b935050602061210f86828701611fbf565b925050604061212086828701611ff5565b9150509250925092565b600060ff82169050919050565b6121408161212a565b82525050565b600060208201905061215b6000830184612137565b92915050565b61216a81611f96565b82525050565b60006020820190506121856000830184612161565b92915050565b6000819050919050565b60006121b06121ab6121a684611f76565b61218b565b611f76565b9050919050565b60006121c282612195565b9050919050565b60006121d4826121b7565b9050919050565b6121e4816121c9565b82525050565b60006020820190506121ff60008301846121db565b92915050565b60006020828403121561221b5761221a611f71565b5b600061222984828501611fbf565b91505092915050565b600081519050919050565b600082825260208201905092915050565b6000819050602082019050919050565b61226781611f96565b82525050565b6000612279838361225e565b60208301905092915050565b6000602082019050919050565b600061229d82612232565b6122a7818561223d565b93506122b28361224e565b8060005b838110156122e35781516122ca888261226d565b97506122d583612285565b9250506001810190506122b6565b5085935050505092915050565b6000602082019050818103600083015261230a8184612292565b905092915050565b6000806040838503121561232957612328611f71565b5b600061233785828601611fbf565b925050602061234885828601611fbf565b9150509250929050565b7f4e487b7100000000000000000000000000000000000000000000000000000000600052602260045260246000fd5b6000600282049050600182168061239957607f821691505b6020821081036123ac576123ab612352565b5b50919050565b7f4e487b7100000000000000000000000000000000000000000000000000000000600052601160045260246000fd5b60006123ec82611fd4565b91506123f783611fd4565b925082820261240581611fd4565b9150828204841483151761241c5761241b6123b2565b5b5092915050565b7f4e487b7100000000000000000000000000000000000000000000000000000000600052601260045260246000fd5b600061245d82611fd4565b915061246883611fd4565b92508261247857612477612423565b5b828204905092915050565b7f4d757374206265206f776e657200000000000000000000000000000000000000600082015250565b60006124b9600d83611eca565b91506124c482612483565b602082019050919050565b600060208201905081810360008301526124e8816124ac565b9050919050565b7f496e76616c696420616464726573730000000000000000000000000000000000600082015250565b6000612525600f83611eca565b9150612530826124ef565b602082019050919050565b6000602082019050818103600083015261255481612518565b9050919050565b7f4164647265737320616c72656164792077686974656c69737465640000000000600082015250565b6000612591601b83611eca565b915061259c8261255b565b602082019050919050565b600060208201905081810360008301526125c081612584565b9050919050565b7f5075626c6963207472616e7366657273206172652064697361626c6564000000600082015250565b60006125fd601d83611eca565b9150612608826125c7565b602082019050919050565b6000602082019050818103600083015261262c816125f0565b9050919050565b7f416d6f756e74206d7573742062652067726561746572207468616e207a65726f600082015250565b6000612669602083611eca565b915061267482612633565b602082019050919050565b600060208201905081810360008301526126988161265c565b9050919050565b6000815190506126ae81611fde565b92915050565b6000602082840312156126ca576126c9611f71565b5b60006126d88482850161269f565b91505092915050565b7f496e73756666696369656e7420555344542062616c616e636520696e20636f6e60008201527f7472616374000000000000000000000000000000000000000000000000000000602082015250565b600061273d602583611eca565b9150612748826126e1565b604082019050919050565b6000602082019050818103600083015261276c81612730565b9050919050565b60006040820190506127886000830185612161565b61279560208301846120ad565b9392505050565b6127a58161204a565b81146127b057600080fd5b50565b6000815190506127c28161279c565b92915050565b6000602082840312156127de576127dd611f71565b5b60006127ec848285016127b3565b91505092915050565b7f55534454207472616e73666572206661696c6564000000000000000000000000600082015250565b600061282b601483611eca565b9150612836826127f5565b602082019050919050565b6000602082019050818103600083015261285a8161281e565b9050919050565b7f43616e6e6f74206275726e2c206f776e6572732068617665206e6f742073657460008201527f2074686520546f6b656e20616464726573730000000000000000000000000000602082015250565b60006128bd603283611eca565b91506128c882612861565b604082019050919050565b600060208201905081810360008301526128ec816128b0565b9050919050565b7f424c54482063616e6e6f74206265206275726e6564206265666f72652069734360008201527f6f6e7665727469626c65206576656e7400000000000000000000000000000000602082015250565b600061294f603083611eca565b915061295a826128f3565b604082019050919050565b6000602082019050818103600083015261297e81612942565b9050919050565b7f41646472657373206e6f7420696e2077686974656c6973740000000000000000600082015250565b60006129bb601883611eca565b91506129c682612985565b602082019050919050565b600060208201905081810360008301526129ea816129ae565b9050919050565b7f4e487b7100000000000000000000000000000000000000000000000000000000600052603260045260246000fd5b6000612a2b82611fd4565b9150612a3683611fd4565b9250828203905081811115612a4e57612a4d6123b2565b5b92915050565b7f4e487b7100000000000000000000000000000000000000000000000000000000600052603160045260246000fd5b7f4e6f7420612077686974656c69737465642061646472657373206f72206c696d60008201527f6974206578686175737465640000000000000000000000000000000000000000602082015250565b6000612adf602c83611eca565b9150612aea82612a83565b604082019050919050565b60006020820190508181036000830152612b0e81612ad2565b9050919050565b7f4c696d6974206578636565646564000000000000000000000000000000000000600082015250565b6000612b4b600e83611eca565b9150612b5682612b15565b602082019050919050565b60006020820190508181036000830152612b7a81612b3e565b9050919050565b6000606082019050612b966000830186612161565b612ba36020830185612161565b612bb060408301846120ad565b949350505050565b7f4e6f7420656e6f75676820746f6b656e7320696e207468652072657365727665600082015250565b6000612bee602083611eca565b9150612bf982612bb8565b602082019050919050565b60006020820190508181036000830152612c1d81612be1565b9050919050565b6000612c2f82611fd4565b9150612c3a83611fd4565b9250828201905080821115612c5257612c516123b2565b5b92915050565b6000606082019050612c6d6000830186612161565b612c7a60208301856120ad565b612c8760408301846120ad565b94935050505056fea2646970667358221220b8f9821748742b9cccb70cd8c6ad9fa03dae58c7ba476688f3615f625c9f551b64736f6c63430008180033",
  "linkReferences": {},
  "deployedLinkReferences": {}
}