{
  "_format": "hh-sol-artifact-1",
  "contractName": "LitheumPrivateBCOERC20",
  "sourceName": "contracts/LitheumPrivateBCOERC20.sol",
  "abi": [
    {
      "inputs": [
        {
          "internalType": "string",
          "name": "name_",
          "type": "string"
        },
        {
          "internalType": "string",
          "name": "symbol_",
          "type": "string"
        },
        {
          "internalType": "address",
          "name": "owner_",
          "type": "address"
        },
        {
          "internalType": "address",
          "name": "usdtToken_",
          "type": "address"
        },
        {
          "internalType": "uint256",
          "name": "staticPrice_",
          "type": "uint256"
        },
        {
          "internalType": "uint256",
          "name": "initSupply_",
          "type": "uint256"
        }
      ],
      "stateMutability": "nonpayable",
      "type": "constructor"
    },
    {
      "inputs": [
        {
          "internalType": "address",
          "name": "spender",
          "type": "address"
        },
        {
          "internalType": "uint256",
          "name": "allowance",
          "type": "uint256"
        },
        {
          "internalType": "uint256",
          "name": "needed",
          "type": "uint256"
        }
      ],
      "name": "ERC20InsufficientAllowance",
      "type": "error"
    },
    {
      "inputs": [
        {
          "internalType": "address",
          "name": "sender",
          "type": "address"
        },
        {
          "internalType": "uint256",
          "name": "balance",
          "type": "uint256"
        },
        {
          "internalType": "uint256",
          "name": "needed",
          "type": "uint256"
        }
      ],
      "name": "ERC20InsufficientBalance",
      "type": "error"
    },
    {
      "inputs": [
        {
          "internalType": "address",
          "name": "approver",
          "type": "address"
        }
      ],
      "name": "ERC20InvalidApprover",
      "type": "error"
    },
    {
      "inputs": [
        {
          "internalType": "address",
          "name": "receiver",
          "type": "address"
        }
      ],
      "name": "ERC20InvalidReceiver",
      "type": "error"
    },
    {
      "inputs": [
        {
          "internalType": "address",
          "name": "sender",
          "type": "address"
        }
      ],
      "name": "ERC20InvalidSender",
      "type": "error"
    },
    {
      "inputs": [
        {
          "internalType": "address",
          "name": "spender",
          "type": "address"
        }
      ],
      "name": "ERC20InvalidSpender",
      "type": "error"
    },
    {
      "anonymous": false,
      "inputs": [
        {
          "indexed": true,
          "internalType": "address",
          "name": "owner",
          "type": "address"
        },
        {
          "indexed": true,
          "internalType": "address",
          "name": "spender",
          "type": "address"
        },
        {
          "indexed": false,
          "internalType": "uint256",
          "name": "value",
          "type": "uint256"
        }
      ],
      "name": "Approval",
      "type": "event"
    },
    {
      "anonymous": false,
      "inputs": [
        {
          "indexed": true,
          "internalType": "address",
          "name": "from",
          "type": "address"
        },
        {
          "indexed": true,
          "internalType": "address",
          "name": "to",
          "type": "address"
        },
        {
          "indexed": false,
          "internalType": "uint256",
          "name": "value",
          "type": "uint256"
        }
      ],
      "name": "Transfer",
      "type": "event"
    },
    {
      "inputs": [],
      "name": "LitheumERC20TokenAddress",
      "outputs": [
        {
          "internalType": "address",
          "name": "",
          "type": "address"
        }
      ],
      "stateMutability": "view",
      "type": "function"
    },
    {
      "inputs": [
        {
          "internalType": "address",
          "name": "_address",
          "type": "address"
        },
        {
          "internalType": "uint256",
          "name": "limit",
          "type": "uint256"
        }
      ],
      "name": "addToWhitelist",
      "outputs": [],
      "stateMutability": "nonpayable",
      "type": "function"
    },
    {
      "inputs": [
        {
          "internalType": "address",
          "name": "owner",
          "type": "address"
        },
        {
          "internalType": "address",
          "name": "spender",
          "type": "address"
        }
      ],
      "name": "allowance",
      "outputs": [
        {
          "internalType": "uint256",
          "name": "",
          "type": "uint256"
        }
      ],
      "stateMutability": "view",
      "type": "function"
    },
    {
      "inputs": [
        {
          "internalType": "address",
          "name": "spender",
          "type": "address"
        },
        {
          "internalType": "uint256",
          "name": "value",
          "type": "uint256"
        }
      ],
      "name": "approve",
      "outputs": [
        {
          "internalType": "bool",
          "name": "",
          "type": "bool"
        }
      ],
      "stateMutability": "nonpayable",
      "type": "function"
    },
    {
      "inputs": [
        {
          "internalType": "address",
          "name": "account",
          "type": "address"
        }
      ],
      "name": "balanceOf",
      "outputs": [
        {
          "internalType": "uint256",
          "name": "",
          "type": "uint256"
        }
      ],
      "stateMutability": "view",
      "type": "function"
    },
    {
      "inputs": [
        {
          "internalType": "uint256",
          "name": "amount",
          "type": "uint256"
        }
      ],
      "name": "burn",
      "outputs": [],
      "stateMutability": "nonpayable",
      "type": "function"
    },
    {
      "inputs": [],
      "name": "decimals",
      "outputs": [
        {
          "internalType": "uint8",
          "name": "",
          "type": "uint8"
        }
      ],
      "stateMutability": "view",
      "type": "function"
    },
    {
      "inputs": [
        {
          "internalType": "uint256",
          "name": "usdtAmount",
          "type": "uint256"
        }
      ],
      "name": "getEstimatedSwapAmount",
      "outputs": [
        {
          "internalType": "uint256",
          "name": "",
          "type": "uint256"
        }
      ],
      "stateMutability": "view",
      "type": "function"
    },
    {
      "inputs": [],
      "name": "getPLTHBalance",
      "outputs": [
        {
          "internalType": "uint256",
          "name": "",
          "type": "uint256"
        }
      ],
      "stateMutability": "view",
      "type": "function"
    },
    {
      "inputs": [],
      "name": "getStaticPrice",
      "outputs": [
        {
          "internalType": "uint256",
          "name": "",
          "type": "uint256"
        }
      ],
      "stateMutability": "view",
      "type": "function"
    },
    {
      "inputs": [],
      "name": "getUSDTBalance",
      "outputs": [
        {
          "internalType": "uint256",
          "name": "",
          "type": "uint256"
        }
      ],
      "stateMutability": "view",
      "type": "function"
    },
    {
      "inputs": [
        {
          "internalType": "address",
          "name": "address_",
          "type": "address"
        }
      ],
      "name": "getWhitelistWithLimit",
      "outputs": [
        {
          "internalType": "uint256",
          "name": "",
          "type": "uint256"
        }
      ],
      "stateMutability": "view",
      "type": "function"
    },
    {
      "inputs": [
        {
          "internalType": "address",
          "name": "_address",
          "type": "address"
        }
      ],
      "name": "isAddressInWhitelist",
      "outputs": [
        {
          "internalType": "bool",
          "name": "",
          "type": "bool"
        }
      ],
      "stateMutability": "view",
      "type": "function"
    },
    {
      "inputs": [],
      "name": "isConvertible",
      "outputs": [
        {
          "internalType": "bool",
          "name": "",
          "type": "bool"
        }
      ],
      "stateMutability": "view",
      "type": "function"
    },
    {
      "inputs": [],
      "name": "isOwner",
      "outputs": [
        {
          "internalType": "bool",
          "name": "",
          "type": "bool"
        }
      ],
      "stateMutability": "view",
      "type": "function"
    },
    {
      "inputs": [],
      "name": "launchSAFT",
      "outputs": [],
      "stateMutability": "nonpayable",
      "type": "function"
    },
    {
      "inputs": [
        {
          "internalType": "address",
          "name": "_address",
          "type": "address"
        },
        {
          "internalType": "uint256",
          "name": "limit",
          "type": "uint256"
        }
      ],
      "name": "modifyLimit",
      "outputs": [],
      "stateMutability": "nonpayable",
      "type": "function"
    },
    {
      "inputs": [],
      "name": "name",
      "outputs": [
        {
          "internalType": "string",
          "name": "",
          "type": "string"
        }
      ],
      "stateMutability": "view",
      "type": "function"
    },
    {
      "inputs": [
        {
          "internalType": "address",
          "name": "_address",
          "type": "address"
        }
      ],
      "name": "removeFromWhitelist",
      "outputs": [],
      "stateMutability": "nonpayable",
      "type": "function"
    },
    {
      "inputs": [
        {
          "internalType": "address",
          "name": "LitheumERC20TokenAddress_",
          "type": "address"
        }
      ],
      "name": "setLitheumERC20TokenAddress",
      "outputs": [],
      "stateMutability": "nonpayable",
      "type": "function"
    },
    {
      "inputs": [
        {
          "internalType": "uint256",
          "name": "staticPrice_",
          "type": "uint256"
        }
      ],
      "name": "setStaticPrice",
      "outputs": [],
      "stateMutability": "nonpayable",
      "type": "function"
    },
    {
      "inputs": [],
      "name": "staticPrice",
      "outputs": [
        {
          "internalType": "uint256",
          "name": "",
          "type": "uint256"
        }
      ],
      "stateMutability": "view",
      "type": "function"
    },
    {
      "inputs": [
        {
          "internalType": "uint256",
          "name": "usdtAmount",
          "type": "uint256"
        }
      ],
      "name": "staticSwap",
      "outputs": [],
      "stateMutability": "nonpayable",
      "type": "function"
    },
    {
      "inputs": [],
      "name": "symbol",
      "outputs": [
        {
          "internalType": "string",
          "name": "",
          "type": "string"
        }
      ],
      "stateMutability": "view",
      "type": "function"
    },
    {
      "inputs": [],
      "name": "totalSupply",
      "outputs": [
        {
          "internalType": "uint256",
          "name": "",
          "type": "uint256"
        }
      ],
      "stateMutability": "view",
      "type": "function"
    },
    {
      "inputs": [
        {
          "internalType": "address",
          "name": "recipient",
          "type": "address"
        },
        {
          "internalType": "uint256",
          "name": "amount",
          "type": "uint256"
        }
      ],
      "name": "transfer",
      "outputs": [
        {
          "internalType": "bool",
          "name": "",
          "type": "bool"
        }
      ],
      "stateMutability": "nonpayable",
      "type": "function"
    },
    {
      "inputs": [
        {
          "internalType": "address",
          "name": "sender_",
          "type": "address"
        },
        {
          "internalType": "address",
          "name": "recipient_",
          "type": "address"
        },
        {
          "internalType": "uint256",
          "name": "amount_",
          "type": "uint256"
        }
      ],
      "name": "transferFrom",
      "outputs": [
        {
          "internalType": "bool",
          "name": "",
          "type": "bool"
        }
      ],
      "stateMutability": "nonpayable",
      "type": "function"
    },
    {
      "inputs": [],
      "name": "usdtContract",
      "outputs": [
        {
          "internalType": "contract IERC20",
          "name": "",
          "type": "address"
        }
      ],
      "stateMutability": "view",
      "type": "function"
    },
    {
      "inputs": [
        {
          "internalType": "uint256",
          "name": "usdtAmount",
          "type": "uint256"
        }
      ],
      "name": "withdraw",
      "outputs": [],
      "stateMutability": "nonpayable",
      "type": "function"
    }
  ],
  "bytecode": "0x6080604052662386f26fc100006008556000600b60006101000a81548160ff0219169083151502179055503480156200003757600080fd5b5060405162003af138038062003af183398181016040528101906200005d91906200068e565b85858160039081620000709190620009a9565b508060049081620000829190620009a9565b505050600073ffffffffffffffffffffffffffffffffffffffff168473ffffffffffffffffffffffffffffffffffffffff1603620000f7576040517f08c379a0000000000000000000000000000000000000000000000000000000008152600401620000ee9062000b3d565b60405180910390fd5b83600560006101000a81548173ffffffffffffffffffffffffffffffffffffffff021916908373ffffffffffffffffffffffffffffffffffffffff1602179055508160088190555082600760006101000a81548173ffffffffffffffffffffffffffffffffffffffff021916908373ffffffffffffffffffffffffffffffffffffffff1602179055506200019230826200019e60201b60201c565b50505050505062000c62565b600073ffffffffffffffffffffffffffffffffffffffff168273ffffffffffffffffffffffffffffffffffffffff1603620002135760006040517fec442f050000000000000000000000000000000000000000000000000000000081526004016200020a919062000b70565b60405180910390fd5b62000227600083836200022b60201b60201c565b5050565b600073ffffffffffffffffffffffffffffffffffffffff168373ffffffffffffffffffffffffffffffffffffffff16036200028157806002600082825462000274919062000bbc565b9250508190555062000357565b60008060008573ffffffffffffffffffffffffffffffffffffffff1673ffffffffffffffffffffffffffffffffffffffff1681526020019081526020016000205490508181101562000310578381836040517fe450d38c000000000000000000000000000000000000000000000000000000008152600401620003079392919062000c08565b60405180910390fd5b8181036000808673ffffffffffffffffffffffffffffffffffffffff1673ffffffffffffffffffffffffffffffffffffffff16815260200190815260200160002081905550505b600073ffffffffffffffffffffffffffffffffffffffff168273ffffffffffffffffffffffffffffffffffffffff1603620003a25780600260008282540392505081905550620003ef565b806000808473ffffffffffffffffffffffffffffffffffffffff1673ffffffffffffffffffffffffffffffffffffffff168152602001908152602001600020600082825401925050819055505b8173ffffffffffffffffffffffffffffffffffffffff168373ffffffffffffffffffffffffffffffffffffffff167fddf252ad1be2c89b69c2b068fc378daa952ba7f163c4a11628f55a4df523b3ef836040516200044e919062000c45565b60405180910390a3505050565b6000604051905090565b600080fd5b600080fd5b600080fd5b600080fd5b6000601f19601f8301169050919050565b7f4e487b7100000000000000000000000000000000000000000000000000000000600052604160045260246000fd5b620004c48262000479565b810181811067ffffffffffffffff82111715620004e657620004e56200048a565b5b80604052505050565b6000620004fb6200045b565b9050620005098282620004b9565b919050565b600067ffffffffffffffff8211156200052c576200052b6200048a565b5b620005378262000479565b9050602081019050919050565b60005b838110156200056457808201518184015260208101905062000547565b60008484015250505050565b60006200058762000581846200050e565b620004ef565b905082815260208101848484011115620005a657620005a562000474565b5b620005b384828562000544565b509392505050565b600082601f830112620005d357620005d26200046f565b5b8151620005e584826020860162000570565b91505092915050565b600073ffffffffffffffffffffffffffffffffffffffff82169050919050565b60006200061b82620005ee565b9050919050565b6200062d816200060e565b81146200063957600080fd5b50565b6000815190506200064d8162000622565b92915050565b6000819050919050565b620006688162000653565b81146200067457600080fd5b50565b60008151905062000688816200065d565b92915050565b60008060008060008060c08789031215620006ae57620006ad62000465565b5b600087015167ffffffffffffffff811115620006cf57620006ce6200046a565b5b620006dd89828a01620005bb565b965050602087015167ffffffffffffffff8111156200070157620007006200046a565b5b6200070f89828a01620005bb565b95505060406200072289828a016200063c565b94505060606200073589828a016200063c565b93505060806200074889828a0162000677565b92505060a06200075b89828a0162000677565b9150509295509295509295565b600081519050919050565b7f4e487b7100000000000000000000000000000000000000000000000000000000600052602260045260246000fd5b60006002820490506001821680620007bb57607f821691505b602082108103620007d157620007d062000773565b5b50919050565b60008190508160005260206000209050919050565b60006020601f8301049050919050565b600082821b905092915050565b6000600883026200083b7fffffffffffffffffffffffffffffffffffffffffffffffffffffffffffffffff82620007fc565b620008478683620007fc565b95508019841693508086168417925050509392505050565b6000819050919050565b60006200088a620008846200087e8462000653565b6200085f565b62000653565b9050919050565b6000819050919050565b620008a68362000869565b620008be620008b58262000891565b84845462000809565b825550505050565b600090565b620008d5620008c6565b620008e28184846200089b565b505050565b5b818110156200090a57620008fe600082620008cb565b600181019050620008e8565b5050565b601f82111562000959576200092381620007d7565b6200092e84620007ec565b810160208510156200093e578190505b620009566200094d85620007ec565b830182620008e7565b50505b505050565b600082821c905092915050565b60006200097e600019846008026200095e565b1980831691505092915050565b60006200099983836200096b565b9150826002028217905092915050565b620009b48262000768565b67ffffffffffffffff811115620009d057620009cf6200048a565b5b620009dc8254620007a2565b620009e98282856200090e565b600060209050601f83116001811462000a21576000841562000a0c578287015190505b62000a1885826200098b565b86555062000a88565b601f19841662000a3186620007d7565b60005b8281101562000a5b5784890151825560018201915060208501945060208101905062000a34565b8683101562000a7b578489015162000a77601f8916826200096b565b8355505b6001600288020188555050505b505050505050565b600082825260208201905092915050565b7f6f776e657220616464726573732063616e6e6f742062652073657420746f207a60008201527f65726f2c2065637265636f7665722072657475726e73207a65726f206f6e206560208201527f72726f7200000000000000000000000000000000000000000000000000000000604082015250565b600062000b2560448362000a90565b915062000b328262000aa1565b606082019050919050565b6000602082019050818103600083015262000b588162000b16565b9050919050565b62000b6a816200060e565b82525050565b600060208201905062000b87600083018462000b5f565b92915050565b7f4e487b7100000000000000000000000000000000000000000000000000000000600052601160045260246000fd5b600062000bc98262000653565b915062000bd68362000653565b925082820190508082111562000bf15762000bf062000b8d565b5b92915050565b62000c028162000653565b82525050565b600060608201905062000c1f600083018662000b5f565b62000c2e602083018562000bf7565b62000c3d604083018462000bf7565b949350505050565b600060208201905062000c5c600083018462000bf7565b92915050565b612e7f8062000c726000396000f3fe608060405234801561001057600080fd5b50600436106101cf5760003560e01c806370a0823111610104578063aa3fd639116100a2578063d0aff6eb11610071578063d0aff6eb1461050e578063dc3d7be91461052a578063dd62ed3e14610546578063e96ebb6814610576576101cf565b8063aa3fd639146104aa578063b85c5262146104c8578063ca343648146104e6578063ceca712014610504576101cf565b806395d89b41116100de57806395d89b411461040e5780639785fac81461042c5780639a3132991461044a578063a9059cbb1461047a576101cf565b806370a08231146103a45780638ab1d681146103d45780638f32d59b146103f0576101cf565b80632e1a7d4d1161017157806342c1775b1161014b57806342c1775b1461032e5780634e4714401461034c5780635736e0651461036a5780636115092314610386576101cf565b80632e1a7d4d146102d8578063313ce567146102f457806342966c6814610312576101cf565b806315d29cc7116101ad57806315d29cc71461025257806318160ddd1461026e578063214405fc1461028c57806323b872dd146102a8576101cf565b806306fdde03146101d4578063095ea7b3146101f25780630db2b8a714610222575b600080fd5b6101dc6105a6565b6040516101e9919061217d565b60405180910390f35b61020c60048036038101906102079190612238565b610638565b6040516102199190612293565b60405180910390f35b61023c600480360381019061023791906122ae565b61065b565b60405161024991906122ea565b60405180910390f35b61026c60048036038101906102679190612238565b610685565b005b610276610877565b60405161028391906122ea565b60405180910390f35b6102a660048036038101906102a19190612238565b610881565b005b6102c260048036038101906102bd9190612305565b610a74565b6040516102cf9190612293565b60405180910390f35b6102f260048036038101906102ed91906122ae565b610ab1565b005b6102fc610d6c565b6040516103099190612374565b60405180910390f35b61032c600480360381019061032791906122ae565b610d75565b005b610336610f03565b6040516103439190612293565b60405180910390f35b610354610f16565b604051610361919061239e565b60405180910390f35b610384600480360381019061037f91906122ae565b610f3c565b005b61038e610fd6565b60405161039b9190612418565b60405180910390f35b6103be60048036038101906103b99190612433565b610ffc565b6040516103cb91906122ea565b60405180910390f35b6103ee60048036038101906103e99190612433565b611044565b005b6103f86112eb565b6040516104059190612293565b60405180910390f35b610416611343565b604051610423919061217d565b60405180910390f35b6104346113d5565b60405161044191906122ea565b60405180910390f35b610464600480360381019061045f9190612433565b611478565b6040516104719190612293565b60405180910390f35b610494600480360381019061048f9190612238565b611520565b6040516104a19190612293565b60405180910390f35b6104b261155d565b6040516104bf91906122ea565b60405180910390f35b6104d0611567565b6040516104dd91906122ea565b60405180910390f35b6104ee611577565b6040516104fb91906122ea565b60405180910390f35b61050c61157d565b005b610528600480360381019061052391906122ae565b61165f565b005b610544600480360381019061053f9190612433565b61195d565b005b610560600480360381019061055b9190612460565b611a31565b60405161056d91906122ea565b60405180910390f35b610590600480360381019061058b9190612433565b611ab8565b60405161059d91906122ea565b60405180910390f35b6060600380546105b5906124cf565b80601f01602080910402602001604051908101604052809291908181526020018280546105e1906124cf565b801561062e5780601f106106035761010080835404028352916020019161062e565b820191906000526020600020905b81548152906001019060200180831161061157829003601f168201915b5050505050905090565b600080610643611b49565b9050610650818585611b51565b600191505092915050565b6000600854670de0b6b3a764000083610674919061252f565b61067e91906125a0565b9050919050565b600560009054906101000a900473ffffffffffffffffffffffffffffffffffffffff1673ffffffffffffffffffffffffffffffffffffffff163373ffffffffffffffffffffffffffffffffffffffff1614610715576040517f08c379a000000000000000000000000000000000000000000000000000000000815260040161070c9061261d565b60405180910390fd5b600073ffffffffffffffffffffffffffffffffffffffff168273ffffffffffffffffffffffffffffffffffffffff1603610784576040517f08c379a000000000000000000000000000000000000000000000000000000000815260040161077b90612689565b60405180910390fd5b61078d82611478565b6107cc576040517f08c379a00000000000000000000000000000000000000000000000000000000081526004016107c3906126f5565b60405180910390fd5b80600960008473ffffffffffffffffffffffffffffffffffffffff1673ffffffffffffffffffffffffffffffffffffffff16815260200190815260200160002081905550600a829080600181540180825580915050600190039060005260206000200160009091909190916101000a81548173ffffffffffffffffffffffffffffffffffffffff021916908373ffffffffffffffffffffffffffffffffffffffff1602179055505050565b6000600254905090565b600560009054906101000a900473ffffffffffffffffffffffffffffffffffffffff1673ffffffffffffffffffffffffffffffffffffffff163373ffffffffffffffffffffffffffffffffffffffff1614610911576040517f08c379a00000000000000000000000000000000000000000000000000000000081526004016109089061261d565b60405180910390fd5b600073ffffffffffffffffffffffffffffffffffffffff168273ffffffffffffffffffffffffffffffffffffffff1603610980576040517f08c379a000000000000000000000000000000000000000000000000000000000815260040161097790612689565b60405180910390fd5b61098982611478565b156109c9576040517f08c379a00000000000000000000000000000000000000000000000000000000081526004016109c090612761565b60405180910390fd5b80600960008473ffffffffffffffffffffffffffffffffffffffff1673ffffffffffffffffffffffffffffffffffffffff16815260200190815260200160002081905550600a829080600181540180825580915050600190039060005260206000200160009091909190916101000a81548173ffffffffffffffffffffffffffffffffffffffff021916908373ffffffffffffffffffffffffffffffffffffffff1602179055505050565b60006040517f08c379a0000000000000000000000000000000000000000000000000000000008152600401610aa8906127cd565b60405180910390fd5b600560009054906101000a900473ffffffffffffffffffffffffffffffffffffffff1673ffffffffffffffffffffffffffffffffffffffff163373ffffffffffffffffffffffffffffffffffffffff1614610b41576040517f08c379a0000000000000000000000000000000000000000000000000000000008152600401610b389061261d565b60405180910390fd5b60008111610b84576040517f08c379a0000000000000000000000000000000000000000000000000000000008152600401610b7b90612839565b60405180910390fd5b6000600760009054906101000a900473ffffffffffffffffffffffffffffffffffffffff1673ffffffffffffffffffffffffffffffffffffffff166370a08231306040518263ffffffff1660e01b8152600401610be1919061239e565b602060405180830381865afa158015610bfe573d6000803e3d6000fd5b505050506040513d601f19601f82011682018060405250810190610c22919061286e565b905080821115610c67576040517f08c379a0000000000000000000000000000000000000000000000000000000008152600401610c5e9061290d565b60405180910390fd5b600760009054906101000a900473ffffffffffffffffffffffffffffffffffffffff1673ffffffffffffffffffffffffffffffffffffffff1663a9059cbb600560009054906101000a900473ffffffffffffffffffffffffffffffffffffffff16846040518363ffffffff1660e01b8152600401610ce692919061292d565b6020604051808303816000875af1158015610d05573d6000803e3d6000fd5b505050506040513d601f19601f82011682018060405250810190610d299190612982565b610d68576040517f08c379a0000000000000000000000000000000000000000000000000000000008152600401610d5f906129fb565b60405180910390fd5b5050565b60006012905090565b600073ffffffffffffffffffffffffffffffffffffffff16600660009054906101000a900473ffffffffffffffffffffffffffffffffffffffff1673ffffffffffffffffffffffffffffffffffffffff1603610e06576040517f08c379a0000000000000000000000000000000000000000000000000000000008152600401610dfd90612a8d565b60405180910390fd5b600b60009054906101000a900460ff16610e55576040517f08c379a0000000000000000000000000000000000000000000000000000000008152600401610e4c90612b1f565b60405180910390fd5b610e5f3382611b63565b600660009054906101000a900473ffffffffffffffffffffffffffffffffffffffff1673ffffffffffffffffffffffffffffffffffffffff1663a9059cbb33836040518363ffffffff1660e01b8152600401610ebc92919061292d565b6020604051808303816000875af1158015610edb573d6000803e3d6000fd5b505050506040513d601f19601f82011682018060405250810190610eff9190612982565b5050565b600b60009054906101000a900460ff1681565b600660009054906101000a900473ffffffffffffffffffffffffffffffffffffffff1681565b600560009054906101000a900473ffffffffffffffffffffffffffffffffffffffff1673ffffffffffffffffffffffffffffffffffffffff163373ffffffffffffffffffffffffffffffffffffffff1614610fcc576040517f08c379a0000000000000000000000000000000000000000000000000000000008152600401610fc39061261d565b60405180910390fd5b8060088190555050565b600760009054906101000a900473ffffffffffffffffffffffffffffffffffffffff1681565b60008060008373ffffffffffffffffffffffffffffffffffffffff1673ffffffffffffffffffffffffffffffffffffffff168152602001908152602001600020549050919050565b600560009054906101000a900473ffffffffffffffffffffffffffffffffffffffff1673ffffffffffffffffffffffffffffffffffffffff163373ffffffffffffffffffffffffffffffffffffffff16146110d4576040517f08c379a00000000000000000000000000000000000000000000000000000000081526004016110cb9061261d565b60405180910390fd5b6110dd81611478565b61111c576040517f08c379a000000000000000000000000000000000000000000000000000000000815260040161111390612b8b565b60405180910390fd5b6000600960008373ffffffffffffffffffffffffffffffffffffffff1673ffffffffffffffffffffffffffffffffffffffff1681526020019081526020016000208190555060005b600a805490508110156112e7578173ffffffffffffffffffffffffffffffffffffffff16600a828154811061119c5761119b612bab565b5b9060005260206000200160009054906101000a900473ffffffffffffffffffffffffffffffffffffffff1673ffffffffffffffffffffffffffffffffffffffff16036112da57600a6001600a805490506111f69190612bda565b8154811061120757611206612bab565b5b9060005260206000200160009054906101000a900473ffffffffffffffffffffffffffffffffffffffff16600a828154811061124657611245612bab565b5b9060005260206000200160006101000a81548173ffffffffffffffffffffffffffffffffffffffff021916908373ffffffffffffffffffffffffffffffffffffffff160217905550600a8054806112a05761129f612c0e565b5b6001900381819060005260206000200160006101000a81549073ffffffffffffffffffffffffffffffffffffffff021916905590556112e7565b8080600101915050611164565b5050565b6000600560009054906101000a900473ffffffffffffffffffffffffffffffffffffffff1673ffffffffffffffffffffffffffffffffffffffff163373ffffffffffffffffffffffffffffffffffffffff1614905090565b606060048054611352906124cf565b80601f016020809104026020016040519081016040528092919081815260200182805461137e906124cf565b80156113cb5780601f106113a0576101008083540402835291602001916113cb565b820191906000526020600020905b8154815290600101906020018083116113ae57829003601f168201915b5050505050905090565b6000600760009054906101000a900473ffffffffffffffffffffffffffffffffffffffff1673ffffffffffffffffffffffffffffffffffffffff166370a08231306040518263ffffffff1660e01b8152600401611432919061239e565b602060405180830381865afa15801561144f573d6000803e3d6000fd5b505050506040513d601f19601f82011682018060405250810190611473919061286e565b905090565b600080600090505b600a80549050811015611515578273ffffffffffffffffffffffffffffffffffffffff16600a82815481106114b8576114b7612bab565b5b9060005260206000200160009054906101000a900473ffffffffffffffffffffffffffffffffffffffff1673ffffffffffffffffffffffffffffffffffffffff160361150857600191505061151b565b8080600101915050611480565b50600090505b919050565b60006040517f08c379a0000000000000000000000000000000000000000000000000000000008152600401611554906127cd565b60405180910390fd5b6000600854905090565b600061157230610ffc565b905090565b60085481565b600560009054906101000a900473ffffffffffffffffffffffffffffffffffffffff1673ffffffffffffffffffffffffffffffffffffffff163373ffffffffffffffffffffffffffffffffffffffff161461160d576040517f08c379a00000000000000000000000000000000000000000000000000000000081526004016116049061261d565b60405180910390fd5b6001600b60006101000a81548160ff02191690831515021790555061165d30600560009054906101000a900473ffffffffffffffffffffffffffffffffffffffff1661165830610ffc565b611be5565b565b6000600960003373ffffffffffffffffffffffffffffffffffffffff1673ffffffffffffffffffffffffffffffffffffffff16815260200190815260200160002054036116e1576040517f08c379a00000000000000000000000000000000000000000000000000000000081526004016116d890612caf565b60405180910390fd5b60008111611724576040517f08c379a000000000000000000000000000000000000000000000000000000000815260040161171b90612839565b60405180910390fd5b6000600854670de0b6b3a76400008361173d919061252f565b61174791906125a0565b9050600960003373ffffffffffffffffffffffffffffffffffffffff1673ffffffffffffffffffffffffffffffffffffffff168152602001908152602001600020548111156117cb576040517f08c379a00000000000000000000000000000000000000000000000000000000081526004016117c290612d1b565b60405180910390fd5b600760009054906101000a900473ffffffffffffffffffffffffffffffffffffffff1673ffffffffffffffffffffffffffffffffffffffff166323b872dd3330856040518463ffffffff1660e01b815260040161182a93929190612d3b565b6020604051808303816000875af1158015611849573d6000803e3d6000fd5b505050506040513d601f19601f8201168201806040525081019061186d9190612982565b6118ac576040517f08c379a00000000000000000000000000000000000000000000000000000000081526004016118a3906129fb565b60405180910390fd5b806118b630610ffc565b10156118f7576040517f08c379a00000000000000000000000000000000000000000000000000000000081526004016118ee90612dbe565b60405180910390fd5b611902303383611cd9565b5080600960003373ffffffffffffffffffffffffffffffffffffffff1673ffffffffffffffffffffffffffffffffffffffff16815260200190815260200160002060008282546119529190612bda565b925050819055505050565b600560009054906101000a900473ffffffffffffffffffffffffffffffffffffffff1673ffffffffffffffffffffffffffffffffffffffff163373ffffffffffffffffffffffffffffffffffffffff16146119ed576040517f08c379a00000000000000000000000000000000000000000000000000000000081526004016119e49061261d565b60405180910390fd5b80600660006101000a81548173ffffffffffffffffffffffffffffffffffffffff021916908373ffffffffffffffffffffffffffffffffffffffff16021790555050565b6000600160008473ffffffffffffffffffffffffffffffffffffffff1673ffffffffffffffffffffffffffffffffffffffff16815260200190815260200160002060008373ffffffffffffffffffffffffffffffffffffffff1673ffffffffffffffffffffffffffffffffffffffff16815260200190815260200160002054905092915050565b6000611ac382611478565b611b02576040517f08c379a0000000000000000000000000000000000000000000000000000000008152600401611af9906126f5565b60405180910390fd5b600960008373ffffffffffffffffffffffffffffffffffffffff1673ffffffffffffffffffffffffffffffffffffffff168152602001908152602001600020549050919050565b600033905090565b611b5e8383836001611cf1565b505050565b600073ffffffffffffffffffffffffffffffffffffffff168273ffffffffffffffffffffffffffffffffffffffff1603611bd55760006040517f96c6fd1e000000000000000000000000000000000000000000000000000000008152600401611bcc919061239e565b60405180910390fd5b611be182600083611ec8565b5050565b600073ffffffffffffffffffffffffffffffffffffffff168373ffffffffffffffffffffffffffffffffffffffff1603611c575760006040517f96c6fd1e000000000000000000000000000000000000000000000000000000008152600401611c4e919061239e565b60405180910390fd5b600073ffffffffffffffffffffffffffffffffffffffff168273ffffffffffffffffffffffffffffffffffffffff1603611cc95760006040517fec442f05000000000000000000000000000000000000000000000000000000008152600401611cc0919061239e565b60405180910390fd5b611cd4838383611ec8565b505050565b6000611ce6848484611be5565b600190509392505050565b600073ffffffffffffffffffffffffffffffffffffffff168473ffffffffffffffffffffffffffffffffffffffff1603611d635760006040517fe602df05000000000000000000000000000000000000000000000000000000008152600401611d5a919061239e565b60405180910390fd5b600073ffffffffffffffffffffffffffffffffffffffff168373ffffffffffffffffffffffffffffffffffffffff1603611dd55760006040517f94280d62000000000000000000000000000000000000000000000000000000008152600401611dcc919061239e565b60405180910390fd5b81600160008673ffffffffffffffffffffffffffffffffffffffff1673ffffffffffffffffffffffffffffffffffffffff16815260200190815260200160002060008573ffffffffffffffffffffffffffffffffffffffff1673ffffffffffffffffffffffffffffffffffffffff168152602001908152602001600020819055508015611ec2578273ffffffffffffffffffffffffffffffffffffffff168473ffffffffffffffffffffffffffffffffffffffff167f8c5be1e5ebec7d5bd14f71427d1e84f3dd0314c0f7b2291e5b200ac8c7c3b92584604051611eb991906122ea565b60405180910390a35b50505050565b600073ffffffffffffffffffffffffffffffffffffffff168373ffffffffffffffffffffffffffffffffffffffff1603611f1a578060026000828254611f0e9190612dde565b92505081905550611fed565b60008060008573ffffffffffffffffffffffffffffffffffffffff1673ffffffffffffffffffffffffffffffffffffffff16815260200190815260200160002054905081811015611fa6578381836040517fe450d38c000000000000000000000000000000000000000000000000000000008152600401611f9d93929190612e12565b60405180910390fd5b8181036000808673ffffffffffffffffffffffffffffffffffffffff1673ffffffffffffffffffffffffffffffffffffffff16815260200190815260200160002081905550505b600073ffffffffffffffffffffffffffffffffffffffff168273ffffffffffffffffffffffffffffffffffffffff16036120365780600260008282540392505081905550612083565b806000808473ffffffffffffffffffffffffffffffffffffffff1673ffffffffffffffffffffffffffffffffffffffff168152602001908152602001600020600082825401925050819055505b8173ffffffffffffffffffffffffffffffffffffffff168373ffffffffffffffffffffffffffffffffffffffff167fddf252ad1be2c89b69c2b068fc378daa952ba7f163c4a11628f55a4df523b3ef836040516120e091906122ea565b60405180910390a3505050565b600081519050919050565b600082825260208201905092915050565b60005b8381101561212757808201518184015260208101905061210c565b60008484015250505050565b6000601f19601f8301169050919050565b600061214f826120ed565b61215981856120f8565b9350612169818560208601612109565b61217281612133565b840191505092915050565b600060208201905081810360008301526121978184612144565b905092915050565b600080fd5b600073ffffffffffffffffffffffffffffffffffffffff82169050919050565b60006121cf826121a4565b9050919050565b6121df816121c4565b81146121ea57600080fd5b50565b6000813590506121fc816121d6565b92915050565b6000819050919050565b61221581612202565b811461222057600080fd5b50565b6000813590506122328161220c565b92915050565b6000806040838503121561224f5761224e61219f565b5b600061225d858286016121ed565b925050602061226e85828601612223565b9150509250929050565b60008115159050919050565b61228d81612278565b82525050565b60006020820190506122a86000830184612284565b92915050565b6000602082840312156122c4576122c361219f565b5b60006122d284828501612223565b91505092915050565b6122e481612202565b82525050565b60006020820190506122ff60008301846122db565b92915050565b60008060006060848603121561231e5761231d61219f565b5b600061232c868287016121ed565b935050602061233d868287016121ed565b925050604061234e86828701612223565b9150509250925092565b600060ff82169050919050565b61236e81612358565b82525050565b60006020820190506123896000830184612365565b92915050565b612398816121c4565b82525050565b60006020820190506123b3600083018461238f565b92915050565b6000819050919050565b60006123de6123d96123d4846121a4565b6123b9565b6121a4565b9050919050565b60006123f0826123c3565b9050919050565b6000612402826123e5565b9050919050565b612412816123f7565b82525050565b600060208201905061242d6000830184612409565b92915050565b6000602082840312156124495761244861219f565b5b6000612457848285016121ed565b91505092915050565b600080604083850312156124775761247661219f565b5b6000612485858286016121ed565b9250506020612496858286016121ed565b9150509250929050565b7f4e487b7100000000000000000000000000000000000000000000000000000000600052602260045260246000fd5b600060028204905060018216806124e757607f821691505b6020821081036124fa576124f96124a0565b5b50919050565b7f4e487b7100000000000000000000000000000000000000000000000000000000600052601160045260246000fd5b600061253a82612202565b915061254583612202565b925082820261255381612202565b9150828204841483151761256a57612569612500565b5b5092915050565b7f4e487b7100000000000000000000000000000000000000000000000000000000600052601260045260246000fd5b60006125ab82612202565b91506125b683612202565b9250826125c6576125c5612571565b5b828204905092915050565b7f4d757374206265206f776e657200000000000000000000000000000000000000600082015250565b6000612607600d836120f8565b9150612612826125d1565b602082019050919050565b60006020820190508181036000830152612636816125fa565b9050919050565b7f496e76616c696420616464726573730000000000000000000000000000000000600082015250565b6000612673600f836120f8565b915061267e8261263d565b602082019050919050565b600060208201905081810360008301526126a281612666565b9050919050565b7f41646472657373206e6f742077686974656c6973746564000000000000000000600082015250565b60006126df6017836120f8565b91506126ea826126a9565b602082019050919050565b6000602082019050818103600083015261270e816126d2565b9050919050565b7f4164647265737320616c72656164792077686974656c69737465640000000000600082015250565b600061274b601b836120f8565b915061275682612715565b602082019050919050565b6000602082019050818103600083015261277a8161273e565b9050919050565b7f5075626c6963207472616e7366657273206172652064697361626c6564000000600082015250565b60006127b7601d836120f8565b91506127c282612781565b602082019050919050565b600060208201905081810360008301526127e6816127aa565b9050919050565b7f416d6f756e74206d7573742062652067726561746572207468616e207a65726f600082015250565b60006128236020836120f8565b915061282e826127ed565b602082019050919050565b6000602082019050818103600083015261285281612816565b9050919050565b6000815190506128688161220c565b92915050565b6000602082840312156128845761288361219f565b5b600061289284828501612859565b91505092915050565b7f496e73756666696369656e7420555344542062616c616e636520696e20636f6e60008201527f7472616374000000000000000000000000000000000000000000000000000000602082015250565b60006128f76025836120f8565b91506129028261289b565b604082019050919050565b60006020820190508181036000830152612926816128ea565b9050919050565b6000604082019050612942600083018561238f565b61294f60208301846122db565b9392505050565b61295f81612278565b811461296a57600080fd5b50565b60008151905061297c81612956565b92915050565b6000602082840312156129985761299761219f565b5b60006129a68482850161296d565b91505092915050565b7f55534454207472616e73666572206661696c6564000000000000000000000000600082015250565b60006129e56014836120f8565b91506129f0826129af565b602082019050919050565b60006020820190508181036000830152612a14816129d8565b9050919050565b7f43616e6e6f74206275726e2c206f776e6572732068617665206e6f742073657460008201527f2074686520546f6b656e20616464726573730000000000000000000000000000602082015250565b6000612a776032836120f8565b9150612a8282612a1b565b604082019050919050565b60006020820190508181036000830152612aa681612a6a565b9050919050565b7f424c54482063616e6e6f74206265206275726e6564206265666f72652069734360008201527f6f6e7665727469626c65206576656e7400000000000000000000000000000000602082015250565b6000612b096030836120f8565b9150612b1482612aad565b604082019050919050565b60006020820190508181036000830152612b3881612afc565b9050919050565b7f41646472657373206e6f7420696e2077686974656c6973740000000000000000600082015250565b6000612b756018836120f8565b9150612b8082612b3f565b602082019050919050565b60006020820190508181036000830152612ba481612b68565b9050919050565b7f4e487b7100000000000000000000000000000000000000000000000000000000600052603260045260246000fd5b6000612be582612202565b9150612bf083612202565b9250828203905081811115612c0857612c07612500565b5b92915050565b7f4e487b7100000000000000000000000000000000000000000000000000000000600052603160045260246000fd5b7f4e6f7420612077686974656c69737465642061646472657373206f72206c696d60008201527f6974206578686175737465640000000000000000000000000000000000000000602082015250565b6000612c99602c836120f8565b9150612ca482612c3d565b604082019050919050565b60006020820190508181036000830152612cc881612c8c565b9050919050565b7f4c696d6974206578636565646564000000000000000000000000000000000000600082015250565b6000612d05600e836120f8565b9150612d1082612ccf565b602082019050919050565b60006020820190508181036000830152612d3481612cf8565b9050919050565b6000606082019050612d50600083018661238f565b612d5d602083018561238f565b612d6a60408301846122db565b949350505050565b7f4e6f7420656e6f75676820746f6b656e7320696e207468652072657365727665600082015250565b6000612da86020836120f8565b9150612db382612d72565b602082019050919050565b60006020820190508181036000830152612dd781612d9b565b9050919050565b6000612de982612202565b9150612df483612202565b9250828201905080821115612e0c57612e0b612500565b5b92915050565b6000606082019050612e27600083018661238f565b612e3460208301856122db565b612e4160408301846122db565b94935050505056fea2646970667358221220c6ad3f7d9d1afe2feb36a2883a3bd69899b7c99d9235c269ad008cf1789a42bc64736f6c63430008180033",
  "linkReferences": {},
  "deployedLinkReferences": {}
}